{
  "contractName": "DAO",
  "abi": [
    {
      "inputs": [
        {
          "internalType": "uint256",
          "name": "contributionTime",
          "type": "uint256"
        },
        {
          "internalType": "uint256",
          "name": "_voteTime",
          "type": "uint256"
        },
        {
          "internalType": "uint256",
          "name": "_quorum",
          "type": "uint256"
        }
      ],
      "payable": false,
      "stateMutability": "nonpayable",
      "type": "constructor"
    },
    {
      "payable": true,
      "stateMutability": "payable",
      "type": "fallback"
    },
    {
      "constant": true,
      "inputs": [],
      "name": "admin",
      "outputs": [
        {
          "internalType": "address",
          "name": "",
          "type": "address"
        }
      ],
      "payable": false,
      "stateMutability": "view",
      "type": "function"
    },
    {
      "constant": true,
      "inputs": [],
      "name": "availableFunds",
      "outputs": [
        {
          "internalType": "uint256",
          "name": "",
          "type": "uint256"
        }
      ],
      "payable": false,
      "stateMutability": "view",
      "type": "function"
    },
    {
      "constant": true,
      "inputs": [],
      "name": "contributionEnd",
      "outputs": [
        {
          "internalType": "uint256",
          "name": "",
          "type": "uint256"
        }
      ],
      "payable": false,
      "stateMutability": "view",
      "type": "function"
    },
    {
      "constant": true,
      "inputs": [
        {
          "internalType": "address",
          "name": "",
          "type": "address"
        }
      ],
      "name": "investors",
      "outputs": [
        {
          "internalType": "bool",
          "name": "",
          "type": "bool"
        }
      ],
      "payable": false,
      "stateMutability": "view",
      "type": "function"
    },
    {
      "constant": true,
      "inputs": [],
      "name": "nextProposalId",
      "outputs": [
        {
          "internalType": "uint256",
          "name": "",
          "type": "uint256"
        }
      ],
      "payable": false,
      "stateMutability": "view",
      "type": "function"
    },
    {
      "constant": true,
      "inputs": [
        {
          "internalType": "uint256",
          "name": "",
          "type": "uint256"
        }
      ],
      "name": "proposals",
      "outputs": [
        {
          "internalType": "uint256",
          "name": "id",
          "type": "uint256"
        },
        {
          "internalType": "string",
          "name": "name",
          "type": "string"
        },
        {
          "internalType": "uint256",
          "name": "amount",
          "type": "uint256"
        },
        {
          "internalType": "address payable",
          "name": "recepient",
          "type": "address"
        },
        {
          "internalType": "uint256",
          "name": "votes",
          "type": "uint256"
        },
        {
          "internalType": "uint256",
          "name": "end",
          "type": "uint256"
        },
        {
          "internalType": "bool",
          "name": "isExecuted",
          "type": "bool"
        }
      ],
      "payable": false,
      "stateMutability": "view",
      "type": "function"
    },
    {
      "constant": true,
      "inputs": [],
      "name": "quorum",
      "outputs": [
        {
          "internalType": "uint256",
          "name": "",
          "type": "uint256"
        }
      ],
      "payable": false,
      "stateMutability": "view",
      "type": "function"
    },
    {
      "constant": true,
      "inputs": [
        {
          "internalType": "address",
          "name": "",
          "type": "address"
        }
      ],
      "name": "shares",
      "outputs": [
        {
          "internalType": "uint256",
          "name": "",
          "type": "uint256"
        }
      ],
      "payable": false,
      "stateMutability": "view",
      "type": "function"
    },
    {
      "constant": true,
      "inputs": [],
      "name": "totalShares",
      "outputs": [
        {
          "internalType": "uint256",
          "name": "",
          "type": "uint256"
        }
      ],
      "payable": false,
      "stateMutability": "view",
      "type": "function"
    },
    {
      "constant": true,
      "inputs": [],
      "name": "voteTime",
      "outputs": [
        {
          "internalType": "uint256",
          "name": "",
          "type": "uint256"
        }
      ],
      "payable": false,
      "stateMutability": "view",
      "type": "function"
    },
    {
      "constant": true,
      "inputs": [
        {
          "internalType": "address",
          "name": "",
          "type": "address"
        },
        {
          "internalType": "uint256",
          "name": "",
          "type": "uint256"
        }
      ],
      "name": "votes",
      "outputs": [
        {
          "internalType": "bool",
          "name": "",
          "type": "bool"
        }
      ],
      "payable": false,
      "stateMutability": "view",
      "type": "function"
    },
    {
      "constant": false,
      "inputs": [],
      "name": "contribute",
      "outputs": [],
      "payable": true,
      "stateMutability": "payable",
      "type": "function"
    },
    {
      "constant": false,
      "inputs": [
        {
          "internalType": "uint256",
          "name": "amount",
          "type": "uint256"
        }
      ],
      "name": "redeemShare",
      "outputs": [],
      "payable": false,
      "stateMutability": "nonpayable",
      "type": "function"
    },
    {
      "constant": false,
      "inputs": [
        {
          "internalType": "uint256",
          "name": "amount",
          "type": "uint256"
        },
        {
          "internalType": "address",
          "name": "recepient",
          "type": "address"
        }
      ],
      "name": "transferShare",
      "outputs": [],
      "payable": false,
      "stateMutability": "nonpayable",
      "type": "function"
    },
    {
      "constant": false,
      "inputs": [
        {
          "internalType": "string",
          "name": "name",
          "type": "string"
        },
        {
          "internalType": "uint256",
          "name": "amount",
          "type": "uint256"
        },
        {
          "internalType": "address payable",
          "name": "recepient",
          "type": "address"
        }
      ],
      "name": "createProposal",
      "outputs": [],
      "payable": false,
      "stateMutability": "nonpayable",
      "type": "function"
    },
    {
      "constant": false,
      "inputs": [
        {
          "internalType": "uint256",
          "name": "proposalId",
          "type": "uint256"
        }
      ],
      "name": "vote",
      "outputs": [],
      "payable": false,
      "stateMutability": "nonpayable",
      "type": "function"
    },
    {
      "constant": false,
      "inputs": [
        {
          "internalType": "uint256",
          "name": "proposalId",
          "type": "uint256"
        }
      ],
      "name": "executeProposal",
      "outputs": [],
      "payable": false,
      "stateMutability": "nonpayable",
      "type": "function"
    },
    {
      "constant": false,
      "inputs": [
        {
          "internalType": "uint256",
          "name": "amount",
          "type": "uint256"
        },
        {
          "internalType": "address payable",
          "name": "to",
          "type": "address"
        }
      ],
      "name": "withdrawEther",
      "outputs": [],
      "payable": false,
      "stateMutability": "nonpayable",
      "type": "function"
    }
  ],
  "bytecode": "0x608060405234801561001057600080fd5b506040516119823803806119828339818101604052606081101561003357600080fd5b810190808051906020019092919080519060200190929190805190602001909291905050506000811180156100685750606481105b6100bd576040517f08c379a00000000000000000000000000000000000000000000000000000000081526004018080602001828103825260218152602001806119616021913960400191505060405180910390fd5b824201600681905550816008819055508060098190555033600a60006101000a81548173ffffffffffffffffffffffffffffffffffffffff021916908373ffffffffffffffffffffffffffffffffffffffff16021790555050505061183a806101276000396000f3fe6080604052600436106101095760003560e01c80636f7bc9be11610095578063ce56c45411610064578063ce56c45414610598578063ce7c2ac2146105f3578063d151b51614610658578063d7bb99ba14610683578063f851a4401461068d57610109565b80636f7bc9be14610456578063868643df146104bf5780639f2524ee146104fa578063bcf93dd61461056d57610109565b80631703a018116100dc5780631703a018146102fa5780632ab09d14146103255780633a98ef391461035057806346fcff4c1461037b5780636ac1e01f146103a657610109565b80630121b93f1461011b578063013cf08b14610156578063039383e6146102645780630d61b519146102bf575b34600560008282540192505081905550005b34801561012757600080fd5b506101546004803603602081101561013e57600080fd5b81019080803590602001909291905050506106e4565b005b34801561016257600080fd5b5061018f6004803603602081101561017957600080fd5b81019080803590602001909291905050506109b1565b60405180888152602001806020018781526020018673ffffffffffffffffffffffffffffffffffffffff1673ffffffffffffffffffffffffffffffffffffffff16815260200185815260200184815260200183151515158152602001828103825288818151815260200191508051906020019080838360005b83811015610223578082015181840152602081019050610208565b50505050905090810190601f1680156102505780820380516001836020036101000a031916815260200191505b509850505050505050505060405180910390f35b34801561027057600080fd5b506102bd6004803603604081101561028757600080fd5b8101908080359060200190929190803573ffffffffffffffffffffffffffffffffffffffff169060200190929190505050610ab8565b005b3480156102cb57600080fd5b506102f8600480360360208110156102e257600080fd5b8101908080359060200190929190505050610c45565b005b34801561030657600080fd5b5061030f610e8d565b6040518082815260200191505060405180910390f35b34801561033157600080fd5b5061033a610e93565b6040518082815260200191505060405180910390f35b34801561035c57600080fd5b50610365610e99565b6040518082815260200191505060405180910390f35b34801561038757600080fd5b50610390610e9f565b6040518082815260200191505060405180910390f35b3480156103b257600080fd5b50610454600480360360608110156103c957600080fd5b81019080803590602001906401000000008111156103e657600080fd5b8201836020820111156103f857600080fd5b8035906020019184600183028401116401000000008311171561041a57600080fd5b909192939192939080359060200190929190803573ffffffffffffffffffffffffffffffffffffffff169060200190929190505050610ea5565b005b34801561046257600080fd5b506104a56004803603602081101561047957600080fd5b81019080803573ffffffffffffffffffffffffffffffffffffffff169060200190929190505050611165565b604051808215151515815260200191505060405180910390f35b3480156104cb57600080fd5b506104f8600480360360208110156104e257600080fd5b8101908080359060200190929190505050611185565b005b34801561050657600080fd5b506105536004803603604081101561051d57600080fd5b81019080803573ffffffffffffffffffffffffffffffffffffffff1690602001909291908035906020019092919050505061133c565b604051808215151515815260200191505060405180910390f35b34801561057957600080fd5b5061058261136b565b6040518082815260200191505060405180910390f35b3480156105a457600080fd5b506105f1600480360360408110156105bb57600080fd5b8101908080359060200190929190803573ffffffffffffffffffffffffffffffffffffffff169060200190929190505050611371565b005b3480156105ff57600080fd5b506106426004803603602081101561061657600080fd5b81019080803573ffffffffffffffffffffffffffffffffffffffff169060200190929190505050611442565b6040518082815260200191505060405180910390f35b34801561066457600080fd5b5061066d61145a565b6040518082815260200191505060405180910390f35b61068b611460565b005b34801561069957600080fd5b506106a2611580565b604051808273ffffffffffffffffffffffffffffffffffffffff1673ffffffffffffffffffffffffffffffffffffffff16815260200191505060405180910390f35b600115156000803373ffffffffffffffffffffffffffffffffffffffff1673ffffffffffffffffffffffffffffffffffffffff16815260200190815260200160002060009054906101000a900460ff161515146107a9576040517f08c379a000000000000000000000000000000000000000000000000000000000815260040180806020018281038252600e8152602001807f6f6e6c7920696e766573746f727300000000000000000000000000000000000081525060200191505060405180910390fd5b60001515600360003373ffffffffffffffffffffffffffffffffffffffff1673ffffffffffffffffffffffffffffffffffffffff168152602001908152602001600020600083815260200190815260200160002060009054906101000a900460ff16151514610880576040517f08c379a000000000000000000000000000000000000000000000000000000000815260040180806020018281038252601a8152602001807f63616e6e6f7420766f7465206d6f7265207468616e206f6e636500000000000081525060200191505060405180910390fd5b6000600260008381526020019081526020016000209050806005015442106108f3576040517f08c379a00000000000000000000000000000000000000000000000000000000081526004018080602001828103825260218152602001806117e56021913960400191505060405180910390fd5b6001600360003373ffffffffffffffffffffffffffffffffffffffff1673ffffffffffffffffffffffffffffffffffffffff168152602001908152602001600020600084815260200190815260200160002060006101000a81548160ff021916908315150217905550600160003373ffffffffffffffffffffffffffffffffffffffff1673ffffffffffffffffffffffffffffffffffffffff1681526020019081526020016000205481600401600082825401925050819055505050565b6002602052806000526040600020600091509050806000015490806001018054600181600116156101000203166002900480601f016020809104026020016040519081016040528092919081815260200182805460018160011615610100020316600290048015610a635780601f10610a3857610100808354040283529160200191610a63565b820191906000526020600020905b815481529060010190602001808311610a4657829003601f168201915b5050505050908060020154908060030160009054906101000a900473ffffffffffffffffffffffffffffffffffffffff16908060040154908060050154908060060160009054906101000a900460ff16905087565b81600160003373ffffffffffffffffffffffffffffffffffffffff1673ffffffffffffffffffffffffffffffffffffffff168152602001908152602001600020541015610b50576040517f08c379a000000000000000000000000000000000000000000000000000000000815260040180806020018281038252602781526020018061176f6027913960400191505060405180910390fd5b81600160003373ffffffffffffffffffffffffffffffffffffffff1673ffffffffffffffffffffffffffffffffffffffff1681526020019081526020016000206000828254039250508190555081600160008373ffffffffffffffffffffffffffffffffffffffff1673ffffffffffffffffffffffffffffffffffffffff1681526020019081526020016000206000828254019250508190555060016000808373ffffffffffffffffffffffffffffffffffffffff1673ffffffffffffffffffffffffffffffffffffffff16815260200190815260200160002060006101000a81548160ff0219169083151502179055505050565b600a60009054906101000a900473ffffffffffffffffffffffffffffffffffffffff1673ffffffffffffffffffffffffffffffffffffffff163373ffffffffffffffffffffffffffffffffffffffff1614610d08576040517f08c379a000000000000000000000000000000000000000000000000000000000815260040180806020018281038252600a8152602001807f6f6e6c792061646d696e0000000000000000000000000000000000000000000081525060200191505060405180910390fd5b60006002600083815260200190815260200160002090508060050154421015610d7c576040517f08c379a00000000000000000000000000000000000000000000000000000000081526004018080602001828103825260278152602001806117be6027913960400191505060405180910390fd5b600015158160060160009054906101000a900460ff16151514610dea576040517f08c379a000000000000000000000000000000000000000000000000000000000815260040180806020018281038252602181526020018061171f6021913960400191505060405180910390fd5b6009546064600454836004015481610dfe57fe5b04021015610e57576040517f08c379a000000000000000000000000000000000000000000000000000000000815260040180806020018281038252602f815260200180611740602f913960400191505060405180910390fd5b610e8981600201548260030160009054906101000a900473ffffffffffffffffffffffffffffffffffffffff166115a6565b5050565b60095481565b60075481565b60045481565b60055481565b600115156000803373ffffffffffffffffffffffffffffffffffffffff1673ffffffffffffffffffffffffffffffffffffffff16815260200190815260200160002060009054906101000a900460ff16151514610f6a576040517f08c379a000000000000000000000000000000000000000000000000000000000815260040180806020018281038252600e8152602001807f6f6e6c7920696e766573746f727300000000000000000000000000000000000081525060200191505060405180910390fd5b816005541015610fe2576040517f08c379a000000000000000000000000000000000000000000000000000000000815260040180806020018281038252601a8152602001807f70726f706f73616c20616d6f756e7420697320746f6f2062696700000000000081525060200191505060405180910390fd5b6040518060e00160405280600754815260200185858080601f016020809104026020016040519081016040528093929190818152602001838380828437600081840152601f19601f8201169050808301925050505050505081526020018381526020018273ffffffffffffffffffffffffffffffffffffffff1681526020016000815260200160085442018152602001600015158152506002600060075481526020019081526020016000206000820151816000015560208201518160010190805190602001906110b4929190611679565b506040820151816002015560608201518160030160006101000a81548173ffffffffffffffffffffffffffffffffffffffff021916908373ffffffffffffffffffffffffffffffffffffffff1602179055506080820151816004015560a0820151816005015560c08201518160060160006101000a81548160ff0219169083151502179055509050508160056000828254039250508190555060076000815480929190600101919050555050505050565b60006020528060005260406000206000915054906101000a900460ff1681565b80600160003373ffffffffffffffffffffffffffffffffffffffff1673ffffffffffffffffffffffffffffffffffffffff16815260200190815260200160002054101561121d576040517f08c379a000000000000000000000000000000000000000000000000000000000815260040180806020018281038252602781526020018061176f6027913960400191505060405180910390fd5b806005541015611295576040517f08c379a000000000000000000000000000000000000000000000000000000000815260040180806020018281038252601a8152602001807f6e6f7420656e6f75676820617661696c61626c652066756e647300000000000081525060200191505060405180910390fd5b80600160003373ffffffffffffffffffffffffffffffffffffffff1673ffffffffffffffffffffffffffffffffffffffff16815260200190815260200160002060008282540392505081905550806005600082825403925050819055503373ffffffffffffffffffffffffffffffffffffffff166108fc829081150290604051600060405180830381858888f19350505050158015611338573d6000803e3d6000fd5b5050565b60036020528160005260406000206020528060005260406000206000915091509054906101000a900460ff1681565b60085481565b600a60009054906101000a900473ffffffffffffffffffffffffffffffffffffffff1673ffffffffffffffffffffffffffffffffffffffff163373ffffffffffffffffffffffffffffffffffffffff1614611434576040517f08c379a000000000000000000000000000000000000000000000000000000000815260040180806020018281038252600a8152602001807f6f6e6c792061646d696e0000000000000000000000000000000000000000000081525060200191505060405180910390fd5b61143e82826115a6565b5050565b60016020528060005260406000206000915090505481565b60065481565b60065442106114ba576040517f08c379a00000000000000000000000000000000000000000000000000000000081526004018080602001828103825260288152602001806117966028913960400191505060405180910390fd5b60016000803373ffffffffffffffffffffffffffffffffffffffff1673ffffffffffffffffffffffffffffffffffffffff16815260200190815260200160002060006101000a81548160ff02191690831515021790555034600160003373ffffffffffffffffffffffffffffffffffffffff1673ffffffffffffffffffffffffffffffffffffffff168152602001908152602001600020600082825401925050819055503460046000828254019250508190555034600560008282540192505081905550565b600a60009054906101000a900473ffffffffffffffffffffffffffffffffffffffff1681565b60055482111561161e576040517f08c379a000000000000000000000000000000000000000000000000000000000815260040180806020018281038252601a8152602001807f6e6f7420656e6f7567682066756e647320617661696c61626c6500000000000081525060200191505060405180910390fd5b816005600082825403925050819055508073ffffffffffffffffffffffffffffffffffffffff166108fc839081150290604051600060405180830381858888f19350505050158015611674573d6000803e3d6000fd5b505050565b828054600181600116156101000203166002900490600052602060002090601f016020900481019282601f106116ba57805160ff19168380011785556116e8565b828001600101855582156116e8579182015b828111156116e75782518255916020019190600101906116cc565b5b5090506116f591906116f9565b5090565b61171b91905b808211156117175760008160009055506001016116ff565b5090565b9056fe63616e6e6f74206578656375746520616e206163746976652070726f706f73616c63616e6e6f7420657865637574652070726f706f73616c207769746820766f7465732062656c6f772071756f72756d74686520696e766573746f7220646f6573206e6f74206f776e20656e6f7567682073686172657363616e6e6f7420636f6e7472696275746520616674657220636f6e747269627574696f6e20656e6463616e6e6f7420657865637574652070726f706f73616c206265666f726520656e64206461746563616e6e6f7420766f746520616674657220766f74696e6720646561646c696e65a265627a7a72315820d2d612d8becd2ec8ea7cb5b05b5c8d43a165c7c687aa74133f9eb513c514fd6364736f6c6343000510003271756f72756d206d757374206265206265747765656e203020616e642031303020",
  "source": "pragma solidity ^0.5.2;\n\ncontract DAO {\n    /**\n    DAO contract:\n    1. Collects investors money (ether)\n    2. Keep track of investor contributions with shares \n    3. Allow investors to transfer shares \n    4. allow investent proposals to be created \n    5. execute successful investment proposals (i.e send money)\n     */\n\n     struct Proposal {\n         uint id;\n         string name;\n         uint amount;\n         //the ether will be sent to another smart contract which represent the investment \n         address payable recepient;\n         uint votes;\n         uint end; //timestamp\n         bool isExecuted;\n     }\n\n     //tracks investors\n     mapping(address => bool) public investors;\n     //tracks investors investments allocated to each investor \n     mapping(address => uint) public shares;\n     mapping(uint => Proposal) public proposals;\n     //check if user already voted for specified proposal\n     mapping(address => mapping(uint => bool)) public votes;\n     uint public totalShares;\n     uint public availableFunds;\n     uint public contributionEnd;\n     uint public nextProposalId;\n     uint public voteTime; // each proposal has a voting time\n     // quorum minimum require votes to execute a proposal\n     // in percent , eg 50 percent of votes\n     uint public quorum;\n     address public admin;\n \n     constructor (\n         uint contributionTime,\n         uint _voteTime,\n         uint _quorum\n         ) public {\n        require(_quorum > 0 && _quorum < 100, \"quorum must be between 0 and 100 \");\n         contributionEnd = now + contributionTime;\n         voteTime = _voteTime;\n         quorum = _quorum;\n         admin = msg.sender;\n     }\n\n     function contribute() payable external {\n          \n        require(now < contributionEnd, \"cannot contribute after contribution end\");\n\n         investors[msg.sender] = true; \n         //allocate investor \n         //we will use 1 wei = 1 share \n         shares[msg.sender] += msg.value;    \n         totalShares += msg.value;\n         availableFunds += msg.value;\n     }\n\n     function redeemShare(uint amount) external{\n\n         require(shares[msg.sender] >= amount, \"the investor does not own enough shares\");\n         //check if we have enough liquidity (available funds) to pay the investor \n         require(availableFunds >= amount, \"not enough available funds\");\n         //decrement investor shares \n         shares[msg.sender] -= amount;\n         //decrement available funds\n         availableFunds -= amount;\n         //send amount to investor\n         /**\n         this assumes that 1 share = 1 wei at the time of redemption of share \n         which may not be the case . because the value of an investment might have increased to 2 wei \n         or decrised, to fix this we need an oracle smart contract which is beyon current scope\n          */\n         msg.sender.transfer(amount);\n\n     }\n\n\n    /**\n       to transfer shares between two investors\n       useful in the context of a transaction between 2 investors \n       that happen outside the smart contract.\n       eg \n       Investor A wants to sell 100 shares to investor B\n       Investor A will place a sell order in an exchange outside the smart contract \n       from a centralized or decentralized exchange \n       Investor B sees the sell order and places buy order for 100 ether eg\n       Investor B sends the ether to the exchange \n       exchange triggers transfer share funcion \n     */ \n    function transferShare(uint amount, address recepient) external {\n        \n         require(shares[msg.sender] >= amount, \"the investor does not own enough shares\");\n       \n        shares[msg.sender] -= amount; \n        shares[recepient] += amount;\n        investors[recepient] = true;\n    }\n    \n    /**\n      4. Allow investors to transfer shares \n      one investor creates a proposal, other investors vote \n      at the end of the vote the investment proposal can be executed (point 4)\n     */ \n     function createProposal(\n         string calldata name,\n         uint amount,\n         address payable recepient) \n         external  \n         onlyInvestors()\n         {\n\n             //check that proposal amout does not exceed availableFunds\n             require(availableFunds >= amount , \"proposal amount is too big\");\n\n            proposals[nextProposalId] = Proposal(\n                nextProposalId,\n                name, \n                amount,\n                recepient,\n                0, //initialze votes to 0\n                now + voteTime,\n                false //isExecuted\n            );\n            availableFunds -= amount; \n            nextProposalId ++;\n    }\n\n\n    function vote(uint proposalId)  external onlyInvestors() {\n           require(votes[msg.sender][proposalId] == false, \"cannot vote more than once\");\n           //create storage pointer \n           Proposal storage proposal = proposals[proposalId];\n           require(now < proposal.end, \"cannot vote after voting deadline\");\n    \n           votes[msg.sender][proposalId] = true; \n           //cannot increment by one because different investors have different \n           //voting weight , so we will instead add the number of shares of an investor\n           proposal.votes += shares[msg.sender];\n    }\n\n    function executeProposal(uint proposalId) external onlyAdmin() {\n\n        Proposal storage proposal = proposals[proposalId];\n        require(now >= proposal.end, \"cannot execute proposal before end date\");\n        require(proposal.isExecuted == false,\"cannot execute an active proposal\");\n        require((proposal.votes / totalShares) * 100 >= quorum, \"cannot execute proposal with votes below quorum\"); //check if we have enough votes\n        \n        _transferEther(proposal.amount, proposal.recepient);\n\n    }\n\n     //can only be called inside the smart contract\n    function _transferEther (uint amount, address payable to) internal {\n         require(amount <= availableFunds, \"not enough funds available\");\n         availableFunds -= amount;\n         to.transfer(amount);\n    }\n\n    function withdrawEther(uint amount, address payable to) external onlyAdmin() {\n           _transferEther(amount, to);\n    }\n     \n    modifier onlyInvestors {\n        require(investors[msg.sender] == true, \"only investors\");\n        _;\n    }\n\n    //fallback function \n    /**\n      used to receive ether that is sent from another smart contract\n      such as the recipient smart contract to send back ether \n     */\n    function() payable external {\n         availableFunds += msg.value;\n    }\n\n    modifier onlyAdmin {\n        require(msg.sender == admin, \"only admin\");\n        _;\n    }\n\n}",
  "sourcePath": "/Users/yusufkelo/Documents/Developer/workspaces/blockchain/ethereum/dao/contracts/DAO.sol",
  "compiler": {
    "name": "solc",
    "version": "0.5.16+commit.9c3226ce.Emscripten.clang"
  },
  "schemaVersion": "3.2.5",
  "updatedAt": "2020-10-06T12:55:24.795Z",
  "devdoc": {
    "methods": {}
  },
  "userdoc": {
    "methods": {
      "createProposal(string,uint256,address)": {
        "notice": "4. Allow investors to transfer shares  one investor creates a proposal, other investors vote  at the end of the vote the investment proposal can be executed (point 4)"
      },
      "transferShare(uint256,address)": {
        "notice": "to transfer shares between two investors useful in the context of a transaction between 2 investors  that happen outside the smart contract. eg  Investor A wants to sell 100 shares to investor B Investor A will place a sell order in an exchange outside the smart contract  from a centralized or decentralized exchange  Investor B sees the sell order and places buy order for 100 ether eg Investor B sends the ether to the exchange  exchange triggers transfer share funcion "
      }
    }
  }
}